:020000040800F2
:1000000010040020010100082F0A00088D090008D3
:100010002D0A00086D010008C50A00080000000054
:10002000000000000000000000000000330A00088B
:100030006F01000800000000310A0008350A0008BE
:100040001B0100081B0100081B0100081B01000820
:100050001B0100081B0100081B0100081B01000810
:100060001B0100081B0100081B0100081B01000800
:100070001B0100081B0100081B0100081B010008F0
:100080001B0100081B0100081B0100081B010008E0
:100090001B0100081B0100081B0100081B010008D0
:1000A0001B0100081B0100081B0100081B010008C0
:1000B0001B0100081B0100081B0100081B010008B0
:1000C0001B0100081B0100081B0100081B010008A0
:1000D0001B0100081B0100081B0100081B01000890
:1000E0001B0100081B0100081B010008DFF80CD0F1
:1000F00000F02AF800480047050B00081004002013
:100100000648804706480047FEE7FEE7FEE7FEE7B1
:10011000FEE7FEE7FEE7FEE7FEE7FEE77D0A0008F2
:10012000ED000008D2B201E000F8012B491EFBD21D
:1001300070470022F6E710B513460A4604461946F2
:10014000FFF7F0FF204610BD064C074D06E0E068C3
:1001500040F0010394E8070098471034AC42F6D30E
:10016000FFF7C8FF400B0008600B0008FEE7704770
:1001700070B5044600F00AF90546601C02D0044838
:100180000078044400F002F9401BA042FAD370BD8D
:10019000000000202DE9F84FDFF8B891002409F1A4
:1001A000040A0AF1040B23460F270BF1040EC9E0E1
:1001B0000125A5402A40AA427DD1674ED1F804C04E
:1001C000ACEB0608B44532D014DCBCF1030F3AD0D6
:1001D00009DCBCF1000F2AD0BCF1010F1CD0BCF12E
:1001E000020F31D11DE0BCF1110F17D0BCF1120F7D
:1001F0002AD119E0B8F5881F19D006DCB8F5803F80
:1002000015D0B8F5801F1FD111E0B8F5001F0ED032
:10021000B8F5041F18D10AE0CB6815E0CB681B1DA8
:1002200012E0CB6808330FE0CB680C330CE08B682E
:100230002BB1012B4FF0080303D0456104E00423E8
:1002400002E0056100E00023FF2A01D8064601E034
:1002500000F104064FEA840501D9A5F12005D6F87E
:10026000008007FA05FC28EA0C0803FA05F548EABD
:100270000508C6F800804D68ED0062D5374DAE69BF
:1002800046F00106AE61AD6924F0030605F00105F4
:100290000095334D06EB050CDCF80850A607360F29
:1002A00007FA06F825EA0805DFF8B880404503D1CB
:1002B0004FF0000817E044E0DFF8AC80404502D181
:1002C0004FF001080FE0DFF8A480404502D14FF065
:1002D000020808E0DFF89880404502D14FF003089B
:1002E00001E04FF0040808FA06F848EA0508CCF8DF
:1002F00008804D68D9F80060ED034D4601D51643DE
:1003000000E096432E604D68DAF80060AD03554674
:1003100001D5164300E096432E604D68DBF800607F
:10032000ED025D4601D5164300E096432E604D6810
:10033000DEF80060AD02754601D5164300E0964335
:100340002E60641C0D682A46E5407FF431AFBDE89D
:10035000F88F00000004014000001110001002405E
:100360000000014000080140000C01400010014065
:1003700000140140C2680A4201D041617047016126
:1003800070470AB1016170470904FBE701488068C2
:100390007047000000000020024881680278114484
:1003A0008160704700000020074810B5016841F0E7
:1003B00010010160032000F067F8002000F006F84B
:1003C00000F024F8002010BD0020024070B50D4D53
:1003D00004464FF47A712878B1FBF0F00A490968B5
:1003E000B1FBF0F000F0BEFA48B9102C07D20022A1
:1003F0002146501E00F028F800206C6070BD0120DE
:1004000070BD0000000000200C0000200C4808B562
:10041000816941F001018161816901F0010100916F
:10042000C16941F08051C161C06900F08050009005
:100430000448416821F0E06141F00071416008BD6D
:100440000010024000000140F0B40E4B1B680C4647
:10045000C3F30223C3F10705042D00D90425191D98
:10046000072901D2002300E0DB1E012606FA05F170
:10047000491E214099409E40761E16403143F0BCF3
:1004800000F021BB0CED00E0064900F0070208680F
:100490004FF6FF03184040EA0220034A1043086069
:1004A000704700000CED00E00000FA052DE9F04770
:1004B0000F46050061D0434E306800F00700B84297
:1004C00009D2306820F0070038433060306800F00F
:1004D0000700B84251D128683B4C810712D540072C
:1004E00003D5606840F4E06060602878000703D5B9
:1004F000606840F4605060606068A96820F0F000B7
:10050000084360602878C00728D06868012810D0A8
:100510002168022810D0890700292EDA616821F0AD
:10052000030101436160FFF731FF804641F28839E2
:100530000DE021688903EFE78901EDE7FFF726FF6A
:10054000A0EB0801494502D90320BDE8F0876068A7
:10055000696800F00C00B0EB810FEFD1306800F05B
:100560000700B8420BD9306820F0070038433060EC
:10057000306800F00700B84201D00120E5E7287894
:10058000400705D56068E96820F4E06008436060D2
:100590002878000706D56068296920F4605040EA91
:1005A000C100606000F018F86168084AC1F30311E7
:1005B000515CC8400649086006480068FFF706FF1E
:1005C0000020C2E70020024000100240300B00086B
:1005D0000C0000200400002012A185B00FC98DE896
:1005E0000F0014A0144A006804905168134801F0E9
:1005F0000C03042B10D0082B0ED1C1F38343C90385
:100600001DF803000AD5516804AAC1F34041515CAA
:100610000A4A5043B0FBF1F005B07047084948431F
:10062000FAE7000002030405060708090A0B0C0D8F
:100630000E0F1010010200000010024000127A009C
:1006400000093D002DE9F84F040070D02078C04D1E
:10065000C00749D06868C0F38100012807D06868E6
:10066000C0F38100022809D16868C00306D5286854
:10067000800339D560680028E7D035E06068B0F5C0
:10068000803F0BD010B1B0F5A02F11D0286820F416
:1006900080302860286820F4802002E0286840F438
:1006A00080302860606890B1FFF770FE06460AE06F
:1006B000286840F480202860F0E700BFFFF766FE5E
:1006C000801B642873D828688003F7D50CE0FFF7F7
:1006D0005DFE064605E000BFFFF758FE801B64285C
:1006E000F0D828688003F7D420789A4E80074FF01E
:1006F00001094FF0000839D5686810F00C0F07D0D9
:100700006868C0F38100022809D16868C00306D474
:100710002868800714D52069012808D110E02069D5
:10072000B0B1C6F80090FFF731FE074605E00AE1D8
:10073000FFF72CFEC01B0228C4D828688007F7D515
:100740002868616920F0F80040EAC10028600DE0E7
:10075000C6F80080FFF71AFE074604E0FFF716FE12
:10076000C01B022823D828688007F7D42078000708
:100770002CD57948A169D9B1C0F80090FFF706FEE1
:10078000074604E0FFF702FEC01B02280FD8686A84
:100790008007F7D571484FF4FA510068B0FBF1F0CB
:1007A000009000BF0098411E0091FAD20EE080E058
:1007B000C0F80080FFF7EAFD074604E0FFF7E6FD1A
:1007C000C01B022875D8686A8007F7D420784007D4
:1007D00060D5E8690027C00008D4E86940F080507F
:1007E000E861E869012700F0805000905C480168EA
:1007F000C90513D40168834641F480710160FFF795
:10080000C5FD824606E000BFFFF7C0FDA0EB0A0071
:1008100064284ED8DBF80000C005F5D5E068012853
:100820000AD008B1052813D0286A20F001002862F8
:10083000286A20F0040002E0286A40F001002862E3
:10084000E06841F2883B98B1FFF7A0FD82460BE0DB
:10085000286A40F004002862EEE700BFFFF796FD2B
:10086000A0EB0A0159455AD8286A8007F6D50CE052
:10087000FFF78CFD824605E0FFF788FDA0EB0A013B
:1008800059454CD8286A8007F6D41FB1E86920F092
:100890008050E861E06988B36968C1F38101022989
:1008A00044D00228C6F8608004D0FFF76FFD0446EC
:1008B00038E034E0FFF76AFD074604E0FFF766FD25
:1008C000C01B02282BD828688001F7D4206AB0F515
:1008D000803F05D16868A16820F400300843686053
:1008E000D4E908010843696821F474110843686079
:1008F000C6F86090FFF74AFD044606E025E000BF19
:10090000FFF744FD001B022809D828688001F7D5AD
:100910001BE000BFFFF73AFD001B022802D90320AD
:10092000BDE8F88F28688001F4D40EE00128F7D0E4
:100930006868226A00F48031914204D1616A00F44F
:100940007010884201D00120EAE70020E8E70000AB
:100950000010024000004242800442420C0000208D
:100960000070004010B5401EB0F1807F01D301201F
:1009700010BD4FF0E02460610F21601700F0A3F874
:100980000020A06107202061002010BDFEE70000CC
:100990002DE9F04385B0002421480094019402948D
:1009A0000394816941F010018161816901F01001B6
:1009B0000491816941F004018161816901F00401C0
:1009C0000491816941F0080181618069DFF85480F8
:1009D00000F008004FF400550490002229464046DC
:1009E000FFF7CFFCDFF840902F1100223946484630
:1009F000FFF7C7FC0095022601250396CDE90154B7
:100A000069464046FFF7C6FB00970396CDE90154BF
:100A100069464846FFF7BEFB05B0BDE8F08300001D
:100A20000010024000100140000C0140FEE770473A
:100A300070477047FFF7B0BC10B590B028216846EA
:100A4000FFF777FB14210AA8FFF773FB0220009041
:100A50000120049010200024059007946846FFF7B9
:100A6000F1FD0F20CDE90A040C940D9400210AA891
:100A70000E94FFF71BFD10B010BD00000D4801687B
:100A800041F00101016041680B4A11404160016879
:100A90000A4A11400160016821F480210160416827
:100AA00021F4FE0141604FF41F0181600449C0033D
:100AB00008607047001002400000FFF8FFFFF6FEDC
:100AC00008ED00E0FEE70907090E002804DB00F14D
:100AD000E02080F80014704700F00F0000F1E020E3
:100AE00080F8141D704702E008C8121F08C1002AD0
:100AF000FAD170477047002001E001C1121F002A9F
:100B0000FBD17047FFF750FCFFF796FFFFF740FF60
:100B1000064D4FF400744FF47A7621462846FFF7CD
:100B200029FC3046FFF724FBF7E70000000C0140EA
:100B3000000000000000000001020304060708098D
:100B4000600B00080000002010000000E60A00080A
:100B5000700B00081000002000040000F60A0008D6
:100B60000100000010000000000000000024F4005C
:04000005080000ED02
:00000001FF
