:020000040800F2
:100000007809002001010008F32C0008371C0008C3
:10001000F12C0008F5070008AD2F000800000000D3
:10002000000000000000000000000000F72C0008A5
:10003000F707000800000000F52C0008F92C000864
:100040001B0100081B0100081B0100081B01000820
:100050001B0100081B0100081B0100081B01000810
:100060001B0100081B0100081B0100081B01000800
:100070001B0100081B0100081B0100081B010008F0
:100080001B0100081B0100081B0100081B010008E0
:100090001B0100081B0100081B0100081B010008D0
:1000A0001B0100081B0100081B0100081B010008C0
:1000B0001B0100081B0100081B010008451C00086B
:1000C000391C00081B0100081B0100081B01000867
:1000D0001B010008A12F00081B0100081B010008DC
:1000E0001B0100081B0100081B010008DFF80CD0F1
:1000F00000F06EFB00480047DD3200087809002060
:100100000648804706480047FEE7FEE7FEE7FEE7B1
:10011000FEE7FEE7FEE7FEE7FEE7FEE7412D00080B
:10012000ED000008202A04DB203A21FA02F0002129
:10013000704721FA02F3D040C2F1200291400843F7
:1001400019467047D2B201E000F8012B491EFBD2DC
:1001500070470022F6E710B513460A4604461946D2
:10016000FFF7F0FF204610BD421C10F8011B0029CC
:10017000FBD1801A7047F0B480EA0102D40F42002C
:10018000B2EB410F02D20246084611464A0042D065
:10019000C30DDDB2C1F3C752AD1A202D35DAC1F35C
:1001A000160141F4000204B15242C5F1200602FAE0
:1001B00006F12A411044B3EBD05F23D0C4B1012D26
:1001C000A0EBC35009DCF0BC4FF0004202EAC3527E
:1001D000DBB200F5000000F05EBA400000F1807074
:1001E00000EBC350A0F1807040EAD170490009E0F3
:1001F000490841EAC071A0EBC35000F50000400877
:1002000000EBC350F0BC00F03DBA6142012202EBAA
:100210004101001BF6E7F0BC704781F00041AAE7FE
:1002200080F00040A7E780EA010210B502F0004329
:10023000400022D04A001FD0010E01EB1261C0F332
:100240005600C2F3560240F4000042F40002A0FB44
:10025000022000047F39140400D0401C50EA1240F0
:1002600001D44000491EC2B20C0604EBD010401C61
:100270004008802A02D003E0002010BD20F00100D9
:10028000002900DA0020184310BD30B480EA0102D2
:1002900002F0004530F0004221F0004013D090B150
:1002A000C30DD40DC2F31601C0F31600E41A41F4D5
:1002B000000140F400027D34914201D3641C00E04F
:1002C0004900002C02DA30BC002070474FF40000D7
:1002D0000023914201D3891A034340084FEA4101A8
:1002E000F7D151B1914202D14FF0004105E002D265
:1002F0004FF0010101E06FF0010103EBC45028440D
:1003000030BC00F0BFB92DE9FE4F804681EA030002
:10031000C00F0C46009021F0004123F00045B8EBDF
:100320000200A94105D24046214690461C460B4694
:10033000024623F00040104347D0270DC7F30A00C0
:10034000C3F30A510290401A019040286BDAC3F3BC
:10035000130040F4801B0098924620B10023D2EB9A
:10036000030A63EB0B0B01985946C0F1400250465B
:1003700000F067F906460D4650465946019A00F0CE
:100380006FF910EB08006141002487EA115284EAFA
:10039000E7731A4340D0009A62B3019A012A4FEAE8
:1003A000075215DC001B61EB02014FF0004202EA2C
:1003B0000752CDE90042001C41F5801132462B4620
:1003C00000F0A4F903B0BDE8F08F40462146F9E7FC
:1003D000001B61EB0201001C41F5801300185B411A
:1003E0002018A2F5001747EB030140EAD570B619B3
:1003F0006D4111E06D084FEA360645EAC0754FEAD7
:100400000752001B61EB0201001C41F580114908F5
:100410004FEA30000019514132462B4603B0BDE887
:10042000F04F00F066B90098012240000023D0EBA5
:10043000020263EBE073009821464FEAE074B8EBE8
:10044000000061EB0401E9E783F000435BE781F022
:10045000004158E72DE9F04D81EA030404F0004B18
:1004600021F0004514464FF0000A23F0004150EA05
:10047000050220D054EA01021DD0C5F30A570246F6
:10048000C5F31303C1F31300C1F30A5640F48015FA
:1004900043F48013A7EB0608101BD64608F2FD387C
:1004A00073EB050002D308F1010801E092185B41EB
:1004B000B8F1000F03DA00200146BDE8F08D0020FE
:1004C0004FF48011064684460EE0171B73EB0507B8
:1004D00005D3121B63EB050306434CEA010C4908E4
:1004E0004FEA300092185B4150EA0107EDD152EA21
:1004F000030012D082EA040083EA0501084305D014
:10050000101BAB4106D20122002306E000224FF06F
:10051000004302E06FF0010253101AEB06004CEBAF
:10052000085110EB0A0041EB0B01BDE8F04D00F063
:10053000E0B8C10F80EAE0700844CA0796230021A2
:1005400000F0A9B80EB540F2334102910021CDE987
:1005500000110A460B4600F0D9F803B000BD20F0A8
:100560000040C10DC0F3160040F400007F2901DAFD
:1005700000207047962903DCC1F19601C8407047FE
:10058000963988407047C1F30A5210B5C1F3130180
:1005900040F2FF3341F480119A4201DA002010BD8D
:1005A00040F233439A42A2F2334203DC5242FFF755
:1005B000B9FD10BD904010BD00F0004230F0004089
:1005C0000AD0C10D01F56071C0F3160042EA015175
:1005D000C20840071143704700200146704701F0F0
:1005E000004330B421F0004150EA010206D00A0D68
:1005F000A2F56072C1F31301002A02DC30BC0020B6
:100600007047440F44EAC104C100E01830BC00EB5D
:10061000C25000F037B830B50B460146002020220A
:10062000012409E021FA02F59D4205D303FA02F5FF
:10063000491B04FA02F52844151EA2F10102F1DC5F
:1006400030BD202A04DB203A00FA02F10020704776
:100650009140C2F1200320FA03F319439040704700
:10066000202A06DBCB17203A41FA02F043EAE07376
:1006700006E041FA02F3D040C2F120029140084363
:10068000194670470029A8BF7047401C490008BFA1
:1006900020F00100704710B4B0FA80FC00FA0CF0B2
:1006A00050EA010404BF10BC704749B1CCF12004EA
:1006B00021FA04F411FA0CF118BF01212143084377
:1006C000A3EB0C01CB1D4FEA00614FEA102042BFA3
:1006D000002010BC704700EBC35010440029A4BF99
:1006E00010BC7047401C490008BF20F0010010BC3E
:1006F000704710B5002B08DA401C41F10001921838
:100700005B411A4301D120F0010010BD2DE9F04DED
:1007100092469B4611B1B1FA81F202E0B0FA80F242
:1007200020329046FFF78DFF04460F4640EA0A004C
:1007300041EA0B0153465A46084313D0114653EA87
:10074000010019D0C8F140025046FFF7EBFC054606
:100750000E46504659464246FFF773FF084305D000
:10076000012004E020463946BDE8F08D0020054315
:1007700046EAE0762C4337430A986305E40AA0EB87
:1007800008000022FD0A44EA47540A3002D500203E
:100790000146E9E7010510196941DDE9084500193D
:1007A0006941BDE8F04DA4E730B5002904DB4FF006
:1007B0000044404264EB0101002B04DB4FF0004495
:1007C000524264EB0303994208BF904230BD0000DF
:1007D000064C074D06E0E06840F0010394E807008E
:1007E00098471034AC42F6D3FFF784FC7837000802
:1007F00098370008FEE7704710B590F821100024E4
:10080000022903D00421816301243DE001680A68C4
:1008100022F00E020A6001680A6822F001020A60F2
:100820001A4A0168914201D1012121E0174A14328C
:10083000914201D110211BE0144A2832914201D18A
:10084000891515E0114A3C32914201D189140FE01B
:100850000E4A5032914202D14FF4803108E00B4AE7
:100860006432914202D14FF4801101E04FF0807167
:10087000064A083A5160012180F82110002180F8D1
:100880002010416B01B18847204610BD080002408E
:1008900090F821007047000070B5044600F0FEF8A3
:1008A0000546601C02D004480078044400F0F6F8C5
:1008B000401BA042FAD370BD1C0000202DE9F84F68
:1008C000DFF8B891002409F1040A0AF1040B234669
:1008D0000F270BF1040EC9E00125A5402A40AA42CA
:1008E0007DD1674ED1F804C0ACEB0608B44532D0D8
:1008F00014DCBCF1030F3AD009DCBCF1000F2AD0A4
:10090000BCF1010F1CD0BCF1020F31D11DE0BCF1D4
:10091000110F17D0BCF1120F2AD119E0B8F5881FBA
:1009200019D006DCB8F5803F15D0B8F5801F1FD16F
:1009300011E0B8F5001F0ED0B8F5041F18D10AE079
:10094000CB6815E0CB681B1D12E0CB6808330FE0C5
:10095000CB680C330CE08B682BB1012B4FF00803F4
:1009600003D0456104E0042302E0056100E00023B8
:10097000FF2A01D8064601E000F104064FEA84058B
:1009800001D9A5F12005D6F8008007FA05FC28EA70
:100990000C0803FA05F548EA0508C6F800804D681A
:1009A000ED0062D5374DAE6946F00106AE61AD6926
:1009B00024F0030605F001050095334D06EB050C08
:1009C000DCF80850A607360F07FA06F825EA0805EE
:1009D000DFF8B880404503D14FF0000817E044E04D
:1009E000DFF8AC80404502D14FF001080FE0DFF89E
:1009F000A480404502D14FF0020808E0DFF898805B
:100A0000404502D14FF0030801E04FF0040808FA16
:100A100006F848EA0508CCF808804D68D9F8006067
:100A2000ED034D4601D5164300E096432E604D6818
:100A3000DAF80060AD03554601D5164300E0964351
:100A40002E604D68DBF80060ED025D4601D516436F
:100A500000E096432E604D68DEF80060AD027546FA
:100A600001D5164300E096432E60641C0D682A46AB
:100A7000E5407FF431AFBDE8F88F0000000401408D
:100A80000000111000100240000001400008014069
:100A9000000C014000100140001401400148806832
:100AA000704700001C000020704770472DE9F0419E
:100AB00004460068416946680025CF43F9050BD418
:100AC000F143C90508D46FF48071012541612068A4
:100AD000016841F400410160B80508D4F043C00545
:100AE00005D421686FF4007045F00205486178056F
:100AF00027D4F043C00524D494F83E30628D94F896
:100B00003D00216B202B08D13AB9212810D029288B
:100B10000ED0282801D121290AD021686FF48060E5
:100B2000486194F83E0045F00405102804D008E020
:100B3000204601F0ABFC04E02068016841F400713C
:100B40000160380508D4F043C00505D421686FF46E
:100B5000006045F008054861002D07D0206C28434F
:100B600020642046BDE8F04101F0B2B8BDE8F08154
:100B70002DE9F041026800245168C56A90F83E30C2
:100B800090F83D60102B1CD0402B1AD0036C002B2A
:100B90007ED053694FF02805DB439F0779D4CF43BC
:100BA000BF0576D4016C01B1946990F83D30002105
:100BB0009D430B467FD0C91E516180F83C30BDE893
:100BC000F081946953694FF42A07DB435FEAC37CE1
:100BD0004FF02A4604D0BD42F1D0B542EFD010E02C
:100BE000CD43AD050DD4C16AB94201D1012103E065
:100BF000C16AB14201D10821C162BDE8F04101F0F2
:100C000041BB1D0716D4CD43AD0513D4416CC9B209
:100C10001161416B11B9826B002AD0D0896A19B970
:100C2000816B896A0029CAD00068416841F400617B
:100C30004160C4E79D0706D4CD43AD0503D4BDE8AC
:100C4000F04101F073BAE443526864074FEA02527C
:100C500015D4002AB3DB1A0608D4CA43520505D4BA
:100C60005A0705D5BDE8F04101F0DEB95A07A6D410
:100C7000C9438905A3D4BDE8F04101F093B9002A26
:100C80009DDB5A060CD4CA43520509D45A0702E028
:100C90000FE023E00FE005D5BDE8F04101F038B9E1
:100CA0005A078CD4C943890589D4BDE8F04101F0C5
:100CB000C6B894696DE7556825F480655560E243D0
:100CC000540700D50121120601D5828900E0028B6C
:100CD00080F83C3092B2FFF7E8FE70E7DC0606D4FD
:100CE000CC43A40503D4BDE8F04101F011BC212E92
:100CF00027D0292E25D05C0655D4CC43640552D488
:100D00005B0752D590F83D10438D002B91D01269AE
:100D1000436A1A70426A521C4262428D521E4285D8
:100D2000428D002A85D12A29D7D101684A6822F448
:100D300080624A602221016380F83D5000F0F6FA9B
:100D40003DE71C0623D4CC43640520D45B0720D5A3
:100D500090F83D10438D002BBFD0436A1B78136180
:100D6000426A521C4262428D521E4285428D002AC6
:100D7000B3D12929B1D101684A6822F480624A605E
:100D80002121016380F83D5000F0D1FA17E75B079D
:100D9000A3D4C9438905A0D4418D00299DD0416ABF
:100DA000097811610AE05B0797D4C943890594D497
:100DB000418D002991D01169426A1170416A491C24
:100DC0004162418D491E4185F9E60068416841F460
:100DD000E06141607047000070B504001BD094F8DA
:100DE0003D00002520B984F83C50204600F060FA10
:100DF000242084F83D002068016821F00101016091
:100E000000F0C4FB4A4A6168914201D8494900E0B8
:100E10004949884201D2012070BD48492368B0FB8E
:100E2000F1F15E6826F03F060E435E606368934210
:100E300006D94FF4967359434FF47A73B1FBF3F12B
:100E40002368491C1E6A26F03F0631431962616817
:100E500091420AD84900401EB0FBF1F0401CC0F39B
:100E60000B0004281ED204201CE0A368F3B301EB9E
:100E7000C10202EB0116421EB2FBF6F2521C42F412
:100E80008042120549D093B301EBC10202EB01117C
:100E9000401EB0FBF1F0401CC0F30B0040F480405A
:100EA00040F400402168CA694CF6FF739A4310432E
:100EB000C861D4E9071001432068026822F0C0022B
:100EC00011430160D4E90310084321688A6848F29D
:100ED000FF339A4310438860D4E905010843216831
:100EE000CA6822F0FF021043C86001E00EE016E07D
:100EF0002068016841F0010101602564202084F828
:100F00003D00256384F83E50002070BD01EB410692
:100F1000421EB2FBF6F2521CB3E70120C2E701EB1E
:100F20004101401EB0FBF1F0401CC0F30B00B7E7DD
:100F3000A086010080841E0000093D0040420F0091
:100F40007047704770470068416841F4E061416054
:100F500070470068416841F4E061416070470000FB
:100F60002DE9FF4F83B09A46DDE911979346044679
:100F7000DDF84080FFF792FD054694F83D002028FB
:100F80006FD1192301227B492046009501F094FB83
:100F90000028F5D194F83C00012862D0012084F8A3
:100FA0003C0020680168C90703D1016841F00101D4
:100FB00001602168086820F400600860222084F83D
:100FC0003D00402084F83E0000262664C4F82480BA
:100FD000A4F82A90608D20856748E062CDE900750D
:100FE00053465A462046049901F093F900287DD1D2
:100FF000208DDFF8888168B1012814D0022820D024
:101000002068016841F4806101602068416980695D
:101010000090A0E02068416981690091016841F475
:101020000071016097E02068016821F4806101602F
:1010300072B62068416981690091016841F40071CC
:101040000CE02168086840F40060086072B620680F
:10105000416981690091016821F48061016062B693
:1010600079E084E003284FD801280BD002283B46C2
:101070004FF000024146204600950ED001F01CFBC7
:10108000A0BB0FE02A463946204601F094FB68BB1E
:1010900020680069616A087054E001F00DFB28BB0C
:1010A00072B61AE02068016821F48061016072B6AE
:1010B00020680069616A0870606A401C6062208D67
:1010C000401E2085608D401E60853B4600224146C3
:1010D0002046009501F0F0FA40B92068016841F41B
:1010E0000071016020680069616A00E012E0087028
:1010F000606A401C6062218D491E2185618D491EF8
:10110000618562B621681BE02A463946204601F017
:1011100052FB18B1012007B0BDE8F08F20680069CC
:10112000616A0870606A401C6062218D491E2185D9
:10113000618D491E618521684A69D24352070AD4EC
:1011400009690170606A401C6062208D401E208524
:10115000608D401E6085208D002883D1202084F87A
:101160003D0084F83E6084F83C600020D3E7022014
:10117000D1E70000020010000000FFFF04000100A2
:101180002DE9FF4F83B09A46DDE911979346044657
:10119000DDF84080FFF782FC054694F83D002028EA
:1011A0007FD11923012240492046009501F084FA9D
:1011B000002876D194F83C00012872D0012084F8F0
:1011C0003C0020680168C90703D1016841F00101B2
:1011D00001602068016821F400610160212084F829
:1011E0003D00402084F83E0000262664C4F8248098
:1011F000A4F82A90608D20852C48E062CDE9007526
:1012000053465A462046049901F0F6F870B930E08A
:101210002A463946204601F001FB58B1206C0428CB
:1012200004D12068016841F400710160012007B019
:10123000BDE8F08F606A216800780861606A401C30
:101240006062218D491E89B22185628D521E6285A0
:1012500022685369DB435B070BD469B100781061E6
:10126000606A401C6062208D401E2085608D401E9B
:101270006085208D0028CBD12A463946204601F0D2
:10128000F5F90028CAD154F83D0B016841F400710A
:101290000160202004F81E09E67766770020C6E783
:1012A000FFE70220C3E70000020010000000FFFF7C
:1012B00010B586B000210091019102910391006860
:1012C000174988422AD1174CA06940F00800A06154
:1012D000A069694600F008000490C0200090122028
:1012E0000190032003901048FFF7E8FAE06940F40A
:1012F0000010E061E069002200F400100490114643
:101300001F2000F07BF81F2000F06AF80022114631
:10131000202000F073F8202000F062F806B010BD25
:101320000054004000100240000C0140704770471C
:101330000248816802781144816070471C000020D7
:10134000074810B5016841F010010160032000F06A
:1013500075F8002000F006F800F024F8002010BD19
:101360000020024070B50D4D04464FF47A71287884
:10137000B1FBF0F00A490968B1FBF0F000F0ECFABB
:1013800048B9102C07D200222146501E00F036F832
:1013900000206C6070BD012070BD00001C000020AA
:1013A000280000200C4808B5816941F001018161E5
:1013B000816901F001010091C16941F08051C16171
:1013C000C06900F0805000900448416821F0E0615D
:1013D00041F00071416008BD001002400000014072
:1013E000002809DB00F01F02012191404009800024
:1013F00000F1E020C0F8001170470000F0B40E4B7F
:101400001B680C46C3F30223C3F10705042D00D962
:101410000425191D072901D2002300E0DB1E012647
:1014200006FA05F1491E214099409E40761E16405D
:101430003143F0BC01F0D0BD0CED00E0064900F0F6
:10144000070208684FF6FF03184040EA0220034AEB
:1014500010430860704700000CED00E00000FA0542
:101460002DE9F0470F46050061D0434E306800F08B
:101470000700B84209D2306820F0070038433060D6
:10148000306800F00700B84251D128683B4C810712
:1014900012D5400703D5606840F4E06060602878AA
:1014A000000703D5606840F4605060606068A96818
:1014B00020F0F000084360602878C00728D06868F2
:1014C000012810D02168022810D0890700292EDABF
:1014D000616821F0030101436160FFF7DFFA804694
:1014E00041F288390DE021688903EFE78901EDE7D2
:1014F000FFF7D4FAA0EB0801494502D90320BDE863
:10150000F0876068696800F00C00B0EB810FEFD1E4
:10151000306800F00700B8420BD9306820F00700AF
:1015200038433060306800F00700B84201D0012035
:10153000E5E72878400705D56068E96820F4E060B1
:10154000084360602878000706D56068296920F4A0
:10155000605040EAC100606000F038F86168084AF5
:10156000C1F30311515CC840064908600648006891
:10157000FFF7F8FE0020C2E7002002400010024002
:10158000603700082800002020000020044805499A
:1015900000684968044AC1F30221515CC8407047A1
:1015A0002800002000100240703700080448054958
:1015B00000684968044AC1F3C221515CC8407047C1
:1015C00028000020001002407037000812A185B0EA
:1015D0000FC98DE80F0014A0144A006804905168E8
:1015E000134801F00C03042B10D0082B0ED1C1F3CB
:1015F0008343C9031DF803000AD5516804AAC1F347
:101600004041515C0A4A5043B0FBF1F005B07047CD
:1016100008494843FAE700000203040506070809E1
:101620000A0B0C0D0E0F10100102000000100240FA
:1016300000127A0000093D002DE9F84F040070D037
:101640002078C04DC00749D06868C0F381000128E8
:1016500007D06868C0F38100022809D16868C00318
:1016600006D52868800339D560680028E7D035E0C2
:101670006068B0F5803F0BD010B1B0F5A02F11D04D
:10168000286820F480302860286820F4802002E058
:10169000286840F480302860606890B1FFF7FEF958
:1016A00006460AE0286840F480202860F0E700BF82
:1016B000FFF7F4F9801B642873D828688003F7D5F6
:1016C0000CE0FFF7EBF9064605E000BFFFF7E6F98F
:1016D000801B6428F0D828688003F7D420789A4EBD
:1016E00080074FF001094FF0000839D5686810F005
:1016F0000C0F07D06868C0F38100022809D1686820
:10170000C00306D42868800714D52069012808D1B1
:1017100010E02069B0B1C6F80090FFF7BFF90746A6
:1017200005E00AE1FFF7BAF9C01B0228C4D828680F
:101730008007F7D52868616920F0F80040EAC10009
:1017400028600DE0C6F80080FFF7A8F9074604E01E
:10175000FFF7A4F9C01B022823D828688007F7D414
:10176000207800072CD57948A169D9B1C0F800903C
:10177000FFF794F9074604E0FFF790F9C01B022831
:101780000FD8686A8007F7D571484FF4FA5100689E
:10179000B0FBF1F0009000BF0098411E0091FAD21A
:1017A0000EE080E0C0F80080FFF778F9074604E01B
:1017B000FFF774F9C01B022875D8686A8007F7D450
:1017C0002078400760D5E8690027C00008D4E869A0
:1017D00040F08050E861E869012700F080500090F7
:1017E0005C480168C90513D40168834641F48071DF
:1017F0000160FFF753F9824606E000BFFFF74EF99C
:10180000A0EB0A0064284ED8DBF80000C005F5D52F
:10181000E06801280AD008B1052813D0286A20F012
:1018200001002862286A20F0040002E0286A40F0E3
:1018300001002862E06841F2883B98B1FFF72EF979
:1018400082460BE0286A40F004002862EEE700BF01
:10185000FFF724F9A0EB0A0159455AD8286A8007F6
:10186000F6D50CE0FFF71AF9824605E0FFF716F906
:10187000A0EB0A0159454CD8286A8007F6D41FB15D
:10188000E86920F08050E861E06988B36968C1F3D5
:101890008101022944D00228C6F8608004D0FFF7F5
:1018A000FDF8044638E034E0FFF7F8F8074604E0B6
:1018B000FFF7F4F8C01B02282BD828688001F7D462
:1018C000206AB0F5803F05D16868A16820F4003037
:1018D00008436860D4E908010843696821F4741179
:1018E00008436860C6F86090FFF7D8F8044606E041
:1018F00025E000BFFFF7D2F8001B022809D82868AE
:101900008001F7D51BE000BFFFF7C8F8001B0228D5
:1019100002D90320BDE8F88F28688001F4D40EE0D6
:101920000128F7D06868226A00F48031914204D11E
:10193000616A00F47010884201D00120EAE70020BB
:10194000E8E70000001002400000424280044242EA
:10195000280000200070004010B5401EB0F1807FCC
:1019600001D3012010BD4FF0E02460610F2160170A
:1019700001F032FB0020A06107202061002010BD93
:101980007047000070B5026804461068D16853695A
:1019900010F00F0F51D003F0010501F4907635439C
:1019A0005DD0C20705D0CA0503D5E26B42F0010243
:1019B000E263420705D5DA0703D0E26B42F0020288
:1019C000E263820705D5DA0703D0E26B42F0040236
:1019D000E263020705D5DA0703D0E26B42F00802A2
:1019E000E263E26B002A34D0800604D5880602D573
:1019F000204601F0DFF920684069E16BC0F38010F8
:101A000001F008010143204624D001F0C5F9206807
:101A1000416949061AD5416921F040014161606B75
:101A2000A0B11B494163606BFEF7E6FE002810D0B1
:101A3000606B416BBDE87040084783060FD58B068D
:101A40000DD52046BDE8704001F0B4B92046FFF73F
:101A500097FF70BDFFF794FF0020E06370BD0306A1
:101A600006D50B0604D52046BDE8704001F034BA17
:101A70004006F3D54806F1D5D168204621F0400153
:101A8000D160202184F8391000F0D4F870BD000036
:101A9000892D000870B5040004D094F839000025A1
:101AA00010B106E0012070BD84F83850204600F0E7
:101AB00023F8242084F839002068C16821F40051FB
:101AC000C160204601F0C2F92068016921F490410B
:101AD00001612068416921F02A0141612068C168E3
:101AE00041F40051C160E563202084F8390084F896
:101AF0003A00002070BD000030B585B0002400948D
:101B00000194029403940068184988422CD1184823
:101B1000816941F480418161816901F480410491CE
:101B2000816941F0040181618069124D00F0040077
:101B300004904FF400700090022001900320039065
:101B400069462846FEF7BAFE2815CDE90004694625
:101B500028460294FEF7B2FE002211462520FFF728
:101B60004DFC2520FFF73CFC05B030BD003801409E
:101B7000001002400008014070472DE9F843044678
:101B800090F839001F4616460D46202850D1A5B1C1
:101B90009EB194F8380001284AD0012084F838001A
:101BA0004FF00008C4F83C80212084F83900FEF78B
:101BB00075FFA6848146E68426E00120BDE8F8830F
:101BC000E08C401EE084A0684B46B0F5805F4FF08B
:101BD00000024FF080012046009703D001F0ADF9DC
:101BE000E8B90DE001F0A9F9C8B928882168C0F367
:101BF00008004860206908B16D1C05E0AD1C03E0D9
:101C0000216815F8010B4860E08C0028D8D14B46BC
:101C1000002240212046009701F08FF908B10320EF
:101C2000CCE7202084F8390084F838800020C5E70C
:101C30000220C3E77047FEE70148FEF737BF000008
:101C4000800000200148FEF793BF000080000020C4
:101C500010B5406A90F83D30426B00219162826B72
:101C600091620268146824F4806414604185426BB8
:101C70005163826B51630268146824F0010414609C
:101C800090F83D202024602A0BD0282232EA03035A
:101C90000FD080F83D4080F83E1000BFFFF795F868
:101CA00010BD80F83D4080F83E100164FEF7FCFE58
:101CB00010BD03681C6844F001041C6003681C68C4
:101CC00044F480641C60016380F83D20E6E7000076
:101CD00070B5044690F83D0094F83E10102906D1E6
:101CE000222804D121680A6822F400620A602821AF
:101CF00031EA00024FF000054FF0200626D021689F
:101D00004968090503D4602801D084F83D60256343
:101D100084F83E5020684168090537D5416821F4B0
:101D200000614160606B384990F82120012A11D090
:101D30004163606BFEF760FD38B32068016821F0F5
:101D40000101016084F83D60606B1CE0256384F84C
:101D50003D10DFE7A06B4163A06BFEF74DFDA0B126
:101D600020684169C943490605D40069616A087061
:101D7000606A401C60622068016821F00101016016
:101D800084F83D60A06B416B884710E094F83D10EB
:101D9000602923D04169C943490605D40069616AB5
:101DA0000870606A401C60622046FFF70EF894F8E5
:101DB0003D00216C490710D528280ED120684168C4
:101DC00021F4E06141601148E062256384F83D60E0
:101DD00084F83E502046FFF7B3F870BD84F83D60AC
:101DE00025644169C943490605D40069616A0870E0
:101DF000606A401C60622068016821F00101016096
:101E00002046FEF751FED2E7511C00080000FFFFFC
:101E100001684A69D24352050FD46FF480624A6167
:101E2000002140F8301F202242738173026942F082
:101E3000040202610173012070470020704710B551
:101E4000C26A438D0168042B06D0438D032B08D052
:101E5000438D022B1DD012E04A6822F480624A6052
:101E60000CE04B6823F480634B60042A06D0022AFE
:101E700004D001680A6822F480620A600168096976
:101E8000426A1170416A491C4162418D491E418577
:101E900010BD012A30D0102A2ED0042A30D0022AB8
:101EA0002ED00A6842F400720A6001680969426A29
:101EB0001170416A491C4162428D521E428502687E
:101EC00012690A70416A491C4162418D491E41856F
:101ED00001684A6822F440724A60202180F83D106F
:101EE00090F83E200021402A80F83E100CD01221AC
:101EF0000163FFF726F810BD0A6822F48062D3E779
:101F00000A6842F48062CFE70163FFF71CF810BD56
:101F100010B590F83D10222914D1418D032912D912
:101F200001680969426A1170416A491C4162418D28
:101F3000491E4185418D032904D10068416821F47F
:101F40008061416010BDC26A022AFBD0012901D024
:101F50000029F7D101680A6822F480620A600168EA
:101F60004A6822F4E0624A6001680969426A1170B5
:101F7000416A491C4162418D491E4185202180F8FA
:101F80003D1090F83E200021402A80F83E1004D0F9
:101F900012210163FEF7D5FF10BD0163FEF7D3FFE9
:101FA00010BD000010B5C26A90F83D1021290BD178
:101FB000418D51B1416A026809781161416A491C39
:101FC0004162418D491E418510BD20230021082A10
:101FD00013D0202A11D012F5803F0ED00268546829
:101FE00024F4E06454601122026380F83E1080F80B
:101FF0003D3000BFFEF7A6FF10BD0268546824F410
:10200000E06454600268146844F40074146001636E
:1020100080F83D3090F83E2080F83E10402AE9D10B
:10202000FEF797FF10BD000010B590F83D1090F836
:102030003E30C26A048D64B1212903D0402B21D1E6
:1020400022291FD1418DA1B390F83E10402937D0ED
:1020500046E02129F2D120230021082A13D0202A8A
:1020600011D012F5803F0ED00268546824F4E06469
:1020700054601122026380F83E1080F83D3000BFAA
:10208000FEF760FF10BD0268546824F4E0645460F9
:102090000268146844F400741460016380F83D30F1
:1020A00090F83E2080F83E10402AE9D1FEF751FF1B
:1020B00010BDFFE70068416821F480614160F7E7E7
:1020C000016DC1B1016D012922D0016D0229EFD14D
:1020D00090F83D10222923D090F83D102129E7D116
:1020E000416A026809781161416A491C4162418D67
:1020F000491E4185DCE7C16C0129816C02D0C1F326
:10210000072107E00268C9B21161016D891C05E071
:10211000816CC9B202681161016D491C0165C7E794
:102120000068016841F480710160C1E778B590F8FA
:102130003E50C26A046B90F83D6000230168222E75
:1021400073D1066D0EB9402D6FD0056D1DB90569AF
:10215000B5F5404F1BD0458D95B3468D484D012EAA
:1021600020D0448D022C4DD00C6844F480640C6067
:1021700001684C68240579D5AA4273D0012A71D030
:10218000082A6FD0102A6DD0202A6BD06EE04A69E1
:102190008A6900920A6842F480720A60016D491CE3
:1021A000016578BDAA4214D10A6822F480620A60EF
:1021B00001684A68120504D50A6822F4806217E0B3
:1021C000FFE74A698A6900920A6842F400720A606D
:1021D00050E0082A10D0202A0ED0122C0AD0042A4F
:1021E00003D0022A01D0102AE6D10A6842F48062A4
:1021F0000A603BE0012ADFD00A6822F480620A60AC
:102200000168DEE7042A11D0022A0FD0102A0DD06F
:102210000C6844F400640C6001684C698C6900949B
:102220000C6824F480640C6008E025E00C6844F439
:1022300080640C6001684C698969009101684C6890
:10224000240517D5AA4207D0012A05D0082A03D0B1
:10225000102A01D0202A0DD14A6842F480524A60E7
:1022600008E0FFE74A6842F480524A6001684A6920
:1022700089690091036578BD48698869009078BDD7
:102280000000FFFF90F83E10402910D00169B1F521
:10229000804F19D0016DB1B3016D012910D1416C8E
:1022A0005FF0F10201F4407142EAD11106E0016DE4
:1022B0000029416C05D0C9B241F0010100680161FB
:1022C000704701F0FE01F9E790F83D102129416CBB
:1022D00007D0C9B241F0010102681161416B31B907
:1022E00002E001F0FE01F7E7826B002AE8D0896A7C
:1022F00019B9816B896A0029E2D00068416841F40C
:10230000006141607047FFE7416CF02201F44071C9
:10231000CAE72DE9F84F0446006889460B9D01681D
:102320009846174641F4806101602068016841F4D5
:102330008071016000954FF0011A0022514620463D
:102340000A9B00F0B9F9002853D1216809F0FE007A
:1023500008610AF1010B2B46594620460A9A00F003
:10236000DFF9F0BB20684169806900902A46204669
:102370000A9900F053FA40B1206C042839D1206842
:10238000016841F40071016033E0FEB2B8F1010F61
:1023900009D02168380A08612A4620460A9900F0C7
:1023A0003DFA0028E8D1206806612A4620460A99AD
:1023B00000F034FA0028DFD12068016841F4807110
:1023C000016000950022514620460A9B00F074F9F6
:1023D00038B9216809F0FF0040F0010008612B4680
:1023E00000E006E0594620460A9A00F099F90028D4
:1023F00000D00120BDE8F88F2DE9F84304460068BD
:102400000D46DDE9089701689846164641F480714B
:1024100001604B4600224FF001112046009700F06A
:102420004BF9E0B9216805F0FE0008613B464A46D9
:102430001549204600F074F988B92068416980691F
:1024400000903A464946204600F0E8F950B1206C29
:10245000042804D12068016841F400710160012062
:10246000BDE8F883F5B2B8F1010F09D02168300A50
:1024700008613A464946204600F0D0F90028E6D1E6
:10248000206805610020EBE7020001002DE9F04122
:1024900090F83D40C26A002320261C4F01686FF46B
:1024A0008065082A01D0202A01D1282C04D0212CB3
:1024B00016D04D61BDE8F081C7624A6822F4E0623F
:1024C0004A6001684D6101680A6822F480620A600E
:1024D000036380F83D6080F83E30FEF731FDE9E7A8
:1024E000C7622122026380F83D6080F83E304A686E
:1024F00022F4E0624A6001684D6101680A6822F4D2
:1025000080620A60FEF713FFD4E700000000FFFFBF
:10251000F8B590F83D6004460068416821F4E06138
:1025200041602068002541690091016841F0010186
:1025300001602068016821F48061016020684168C1
:10254000090520D5474F222E48D02A2E46D0616B50
:10255000096849686185618D19B1216C41F00401F8
:102560002164416821F400614160606BFEF790F9DD
:10257000012808D0606B4763606BFEF73DF910B12E
:10258000606B416B8847608D08B320684169C9431F
:10259000490708D40069616A0870606A401C60627B
:1025A000608D401E608520684169C943490608D492
:1025B0000069616A0870606A401C6062608D401E3C
:1025C0006085608D18B1206C40F004002064206CA0
:1025D00000B32046BDE8F840FFF77ABBA16B09685D
:1025E00049686185618D19B1216C41F00401216454
:1025F000416821F400614160A06BFEF749F90128B0
:10260000C1D0A06B4763A06BFEF7F6F80028BAD0E4
:10261000A06BB6E72A2E06D12563282084F83D005A
:102620002046FEF783FE94F83D10202028290DD087
:10263000216B222901D0222E07D1256384F83D0089
:1026400084F83E502046FEF771FEF8BD0649E1626F
:10265000256384F83D0084F83E502046FEF770FC68
:10266000F8BD0000511C00080000FFFF70B51646C1
:102670000D4604460DE02046FFF7CAFB08B10120D5
:1026800070BD681C05D0FEF709FA801BA84207D868
:1026900035B120684069C0434007ECD4002070BDCC
:1026A000002044F8300F20216173A073216941F0AC
:1026B000200121612073E2E72DE9F0471E46904694
:1026C0000D460446C1F30747DDF8209008E0701C72
:1026D00006D0FEF7E3F9A0EB0900B0420FD876B1BF
:1026E0002068012F18D0806925EA00000004000C42
:1026F00014D000214145EAD00020BDE8F087002039
:1027000044F8300F20216173A073216941F020014A
:10271000216120730120F0E74069E5E70121E9E745
:102720002DE9F0479A4691460E46044600254FF0A3
:102730002008C1F3074725E020684069C0434005F1
:1027400014D42068016841F40071016021686FF4BD
:1027500080604861256384F83D8084F83E50206C99
:1027600040F00400206484F83C501FE0B9F1FF3FC2
:1027700008D0FEF793F9A0EB0A0149450CD8B9F14E
:10278000000F09D02068012F13D0806926EA0000CD
:102790000004000C0BD0CFE744F8305F84F80D80C4
:1027A000A573206940F02000206125730120BDE859
:1027B000F0874069EAE72DE9F041002590460E4692
:1027C0000446202717E04069C043C0060CD454F8E3
:1027D000301B6FF01000486144F810596777A577F7
:1027E000206A2062257717E0FEF758F9A0EB080071
:1027F000B04208D83EB120684169C9434906E2D4D5
:102800000020BDE8F08144F8305F6773A57320694C
:1028100040F02000206125730120F2E770B51646D4
:102820000D4604460DE02046FFF7F2FA08B10120FC
:1028300070BD681C05D0FEF731F9801BA84207D88F
:1028400035B120684069C0430006ECD4002070BD5B
:10285000002044F8300F20216173A073216941F0FA
:10286000200121612073E2E710B500F010F915286E
:1028700001D0002010BD012010BDF8B515461C4642
:102880000E460A460746FA23572100F005F928406C
:1028900040EA0403FA20009032465721384600F0FF
:1028A0001AFAF8BD2DE9F14F84B0049800F0CCF885
:1028B0000446049800F0E6F8002584427DD0051B0C
:1028C00000D520354348DFF810914FF0000B007819
:1028D00009F1200A684300EB400674E03446202EDC
:1028E0000ADD3C482021007800EB4000B1FBF0F20B
:1028F00000FB1210C0F12004FA22A0B2CDF8009023
:10290000CDE90102361B01230722AE210498FEF710
:1029100027FB30480021077853E09AF830206BF30A
:102920001F60521C02F0030C8AF830C019F80180B5
:10293000491C68F3174019F80180491C68F30F20FF
:1029400019F80180491C68F30700C0F311085346C9
:102950004A464AF82C80012F16D912F801C0491CAA
:102960006CF3174012F801C0491C6CF30F2012F8E9
:1029700001C093F830806CF3070003EB8808C0F3C4
:10298000110C491CC8F810C0022F15D912F801C04B
:10299000491C6CF3174012F801C0491C6CF30F205E
:1029A00019F80120491C62F3070093F83020C0F3A6
:1029B00011000AEB8202106200E006E0A7EB87003C
:1029C0000444002CA9DC002E88DC05B0A8B2BDE8C8
:1029D000F08F0000000000202C00002038B5FA2401
:1029E0000546002304225721009400F074F90023C7
:1029F000052257212846009400F06DF90023062295
:102A000057212846009400F066F938BD1023EF22C4
:102A10000821FFF732BF01290BD0130102290BD087
:102A200003290DD004290ED1DBB28F221221FFF72A
:102A300024BF1346F82201E0DBB28F221121F6E712
:102A40001346F822F2E77047FA230622572100F0D6
:102A500023B8000010B50C46FA2100F02EF800282B
:102A60000CD0074890F8301050F82110216090F8F1
:102A7000301000EB810000696060012010BD000093
:102A80004C000020FA230422572100F005B8FA2355
:102A9000FF225721AFF300807FB503AD01240095DD
:102AA000CDE9014349002346FEF75AFA10B1002050
:102AB00004B070BD9DF80C00FAE770B50D460646EF
:102AC000FDF7ECFF0446FDF7E9FF001BA84201D922
:102AD000002070BD3046FFF7E5FE0128F9D0012047
:102AE000FDF7DAFEEFE70B469F220A21FFF7C5BE8E
:102AF0000B46E0220821FFF7C0BE0B46F822092151
:102B0000FFF7BBBE08B5FA220B4600920E225721F2
:102B100000F0E1F808BD08B5FA220B4600920D223C
:102B2000572100F0D8F808BD08B5FA220B460092EC
:102B30001022572100F0CFF808BD08B5FA220B4645
:102B400000920C22572100F0C6F808BD0B46FC226B
:102B50000A21FFF792BE0B46E3220A21FFF78DBE42
:102B60002DE9F0471E46DDE90848154689468246AC
:102B70000A9F00F0ABF8012D0BD0022D0BD0042DD5
:102B800005D0082D09D0102D09D0202D09D04021C5
:102B900008E0002106E0202104E0602102E080211D
:102BA00000E0A0215046FFF7A3FF5046FFF72EFF9D
:102BB000032E0CD0022E0CD002215046FFF79DFFB1
:102BC0004148B7F5805F067005D2002111E007216A
:102BD000F3E70321F1E7B7F5005F01D2202108E018
:102BE0004FF48040874201D2402102E08742ECD17D
:102BF00060215046FFF777FF642C01D2002120E0CE
:102C0000C82C01D204211CE0B4F5C87F01D20821F0
:102C100017E0B4F5487F01D20C2112E0B4F57A7FB9
:102C200001D210210DE0B4F5C86F01D2142108E0E3
:102C30004FF44860844201D2182102E08442DDD181
:102C40001C215046FFF787FFB8F1760F01D2002113
:102C50000EE0B8F1D70F01D2012109E0B8F5CD7F20
:102C600001D8022104E0A8F580719B39EFD103213E
:102C70005046FFF76BFF49465046FFF75EFF494657
:102C80005046FFF748FF49465046FFF73BFF49468D
:102C90005046FFF749FF012211465046FFF7BBFEA1
:102CA000012E0BD9022211465046FFF7B4FE022E28
:102CB00004D9032211465046FFF7ADFE5046BDE849
:102CC000F047FFF78BBE0000000000204023BF222A
:102CD0000921FFF7D2BD3FB583B0012406AB0A9DA1
:102CE0008DE8380049002346FEF74AFA07B030BDA8
:102CF000FEE7704770477047FEF71ABB10B590B0FB
:102D000028216846FDF725FA14210AA8FDF721FAC3
:102D100002200090012004901020002405900794C8
:102D20006846FEF789FC0F20CDE90A040C940D9447
:102D300000210AA80E94FEF793FB10B010BD00000E
:102D40000D48016841F00101016041680B4A1140E2
:102D5000416001680A4A11400160016821F4802144
:102D60000160416821F4FE0141604FF41F01816060
:102D70000449C00308607047001002400000FFF8DB
:102D8000FFFFF6FE08ED00E010B5406A0021C185A6
:102D9000C184FEF7F5FD10BD0168CA6822F4907287
:102DA000CA6001684A6922F001024A61202180F864
:102DB0003A10704710B590F83A10222901D002203D
:102DC00010BD8168B1F5805F11D0016900290168EB
:102DD0001FD0496801F07F03816A4A1C82620B7030
:102DE000C18D491E0904090CC18518D02BE0026968
:102DF000816A002A0268526805D0D2B20A80816ACC
:102E0000491C8162ECE7C2F308020A80816A891CCE
:102E1000F7E74A68816A4B1C83620A70E0E7016841
:102E2000CA6822F02002CA600168CA6822F480726F
:102E3000CA6001684A6922F001024A61202180F8D3
:102E40003A10FEF799FE002010BD000070B5044650
:102E500000680169E26821F4405111430161216970
:102E6000A0680843616908432168CA6841F20C639D
:102E70009A430243CA6020684169A26921F4407103
:102E8000114341611349206864253226884202D1EA
:102E9000FEF78CFB01E0FEF779FB00EBC00101EBD4
:102EA000001061686FF018028900B0FBF1F1B1FB0E
:102EB000F5F0424301EB820106EB0111B1FBF5F1A4
:102EC00001F0F00202EB001001F00F01084421684C
:102ED000886070BD0038014090F83910212901D078
:102EE000022070478168B1F5805F016A0BD04A1CEF
:102EF0000262026809785160C18C491E0904090CFC
:102F0000C1840ED017E009880268C1F3080151603E
:102F100001690029016A02D0491C0162ECE7891CA1
:102F2000FBE70168CA6822F08002CA600068C168D5
:102F300041F04001C160002070472DE9F041984602
:102F400017460E460446069D1DE0681C1BD02DB199
:102F5000FDF7A4FDA0EB0800A84214D92068C168C1
:102F600021F4D071C1602068416921F00101416103
:102F7000202084F8390084F83A00002084F83800D2
:102F80000320BDE8F0812068006836EA000004D024
:102F90000020B842D9D00020F3E70120F9E7000073
:102FA0000148FEF7EFBC0000D4000020FEE700005F
:102FB0000FB4084B10B504A902AA039800F02CF82E
:102FC000044602A9002000F0D1F8204610BC5DF8AC
:102FD00014FB00006D3100080907090E002804DB0E
:102FE00000F1E02080F80014704700F00F0000F1BD
:102FF000E02080F8141D704702E008C8121F08C1C5
:10300000002AFAD170477047002001E001C1121F69
:10301000002AFBD1704700002DE9FF4F89B09B4685
:103020000446002506E025280BD05A460B99904708
:10303000641C6D1C20780028F5D10DB02846BDE831
:10304000F08F0027B8460122474900E0074314F8F3
:10305000013F203B02FA03F00842F7D120782E28E6
:1030600019D114F8010F47F004072A280ED06FF089
:103070002F022078A0F1300109290CD808EB880133
:1030800002EB410100EB0108641CF2E70A98641CA2
:1030900050F8048B0A9020780028CED0642808D0FD
:1030A000692806D075281ED05A460B9990476D1C8A
:1030B00058E00A994FF00A0901C90A91002802DA7A
:1030C00040422D2102E0390504D52B218DF8201036
:1030D000012103E0F90704D02021F7E78A4608AE72
:1030E0000DE00021FAE70A994FF00A0901C90A9197
:1030F000F7E74946FDF78FFA303106F8011D002841
:10310000F7D1ADEB060000F12009780701D44FF0AC
:103110000108C84502DDA8EB090000E00020804658
:10312000002706E008A85A46C05D0B9990476D1C21
:103130007F1C5745F6DB04E030205A460B99904738
:103140006D1CB8F10001A8F10108F5DC05E016F8E6
:10315000010B5A460B9990476D1CB9F10001A9F17A
:103160000109F4DC641C65E7092801000A68531CA6
:103170000B6010707047000090F89611012912D171
:1031800090F8971101290ED190F8981106290AD1CB
:1031900000F5CE7003C8081A4B2804DD03498842A5
:1031A00001DA01207047002070470000A0252600AA
:1031B0002DE9F041C1F30A52A2F2FF362F4A304BFB
:1031C0000D460446142E2FDA002E12DAFDF79BF876
:1031D00000221346FDF7E8FA4CD2002DA4BF0024CC
:1031E000254647DA25F00040204318BF254D41D041
:1031F00018E0DFF894C02CFA06F705EA070C5CEA41
:10320000040C08BFBDE8F081FDF77DF800221346ED
:10321000FDF7CAFA2ED2002D03DA4FF48010F040E9
:103220000544BD43002425E0332EC8BFBDE8F0812E
:10323000A6F1140C4FF0FF3727FA0CF73C4208BFF9
:10324000BDE8F081FDF703F900221346FDF7ACFA63
:1032500010D2002D0DDA142E08BF6D1C09D0C6F156
:103260003400012101FA00F02044A04238BF6D1C57
:103270000446BC4329462046BDE8F0819C75008881
:103280003CE4377E0000F0BFFFFF0F0070B504463E
:10329000002520C08021FCF75CFF802104F1840020
:1032A000FCF757FF84F80451802104F58470FCF783
:1032B00050FF84F8885184F8945184F8955184F82B
:1032C000965184F89751C4F89C51C4F8A05184F8E1
:1032D0009851C4F88C51C4F8905170BD8AB0FEF773
:1032E0002FF8FFF70BFD7D48816941F004018161F2
:1032F000816901F004010091816941F00801816157
:103300008069774900F00800009076484FF0000A85
:10331000544601607449C0E9011A4FF48041C0E984
:1033200003A1C0F814A0C0F818A0C0F81CA0C0F8F1
:1033300020A0FDF751FD6B486C49543001604FF4FB
:10334000E131C0E901140C21C460C0E90441846189
:10335000C461FEF79FFB6420FDF79EFA6148FFF70A
:1033600083FA00287DD04FF4805240F29B114FF435
:10337000C8708DE80700022310223F215948FFF74B
:10338000EFFB5B48FFF782FF5A48FFF77FFF584D7E
:10339000DFF86081584C584952481031FFF75AFB0A
:1033A0000028F8D0FDF77AFB064653481030016834
:1033B000296041684E48C8F8001000F0BDF84D483B
:1033C00000F0BAF8A068301AB0F5FA6F01D384F8AB
:1033D00002A04848FFF7D0FE2070070015D0A06873
:1033E000301AFDF7AFF802460B4600204349FDF7BF
:1033F00031F8FDF7F4F84249424A0144E060914255
:1034000002D2FDF7ACF8A070A66008F5CE7003C834
:10341000A1EB0009B9F1000F34DDD5F8A4010028B3
:1034200030DDFDF786F80090D8F8A401FDF781F8AB
:1034300083464846FDF77DF88146D5E96710401A76
:10344000FDF777F84946FCF720FF5946FCF7EBFEFD
:103450000099FCF71AFF2C496060FCF7E4FE2B4949
:1034600000E00EE0FCF7DCFEFDF7A6F8FFF7A0FE9B
:10347000FDF789F8C0B26070642806D964206070D6
:1034800003E0FEE7504684F801A0A178C0B2069799
:103490000996CDE9071008F5D2700DF1080C90E8F7
:1034A0000E00D8F800008CE80F00D5E96A01CDE9DC
:1034B00000010C4816A19430D5F8A4312A68FFF712
:1034C00077FD08489430FCF74FFE064982B29431EC
:1034D0001423A1F14000FEF750FB5CE7001002400E
:1034E0000054004080000020A08601000038014008
:1034F00014020020C403002004000020004CED4012
:10350000FFFF0FBEFFFF43010000C8410000DC4287
:1035100025643A25643A25643A25643A25643A25B7
:10352000643A25643A25643A25753A25753A257535
:103530003A25750D0A000000F0B5D0F88C11C0F8DE
:103540009011D0F8AC110022C0F8A421C0F88C1161
:1035500090F80431016800EB8303596090F804117E
:1035600000EB8101C1F884204FEA020190F8043198
:1035700000EB810500EB83036D6853F8844F491C11
:103580002C441C602029F1DB90F8041100EB810130
:1035900051F8843F5B110B605FF0000100EB810488
:1035A000D0F8A431D4F88440491C2344C0F8A43195
:1035B0002029F3DB5B11C0F8A43190F8041140F628
:1035C0004325491C01F01F0400EB840401F01F0196
:1035D0006468E31AC0F8A83180F80411C0F8AC217F
:1035E00090F8881100EB8101C1F8083190F888113A
:1035F000D0F8AC41A1F10B0303F01F0300EB8303F0
:10360000D3F808316B4304EB8303C0F8AC31474C6B
:103610000023CD1A05F01F0500EB850554F8237033
:10362000D5F80861A3F116050D4405F01F0500EB60
:1036300085055B1CD5F80851DBB23544D0F8AC6188
:103640000B2B07FB0565C0F8AC51E2D3EB13491C0B
:1036500001F01F01C0F8AC3180F8881190F8961184
:10366000012909D180F8942180F8952180F89621CC
:1036700080F8972180F89821D0E9631401258C42C5
:1036800011D199420FDA90F89561012E05D180F899
:103690009751C0F89C1180F8952190F89461012E03
:1036A00001D180F894218C4213D1994211DD90F818
:1036B0009561012E01D180F8952190F89461012E39
:1036C00007D1002905DD80F89651C0F8A01180F8D7
:1036D00094218C4203DA994201D180F894518C42B2
:1036E00003DD994201D180F895518C4207DA994265
:1036F00005DD002903DD80F89651C0F8A0118C4249
:1037000005DD994203DA80F89751C0F89C1190F8D2
:103710009841062C04D2994203DC641C80F898413D
:10372000F0BD002CFCD080F89821F0BD30370008A7
:1037300090FFFFFFE4FFFFFF2C010000B402000038
:1037400065020000E1FEFFFF19FAFFFF60F9FFFFCD
:1037500082010000A6110000172200000C290000C1
:103760000000000000000000010203040607080931
:103770000000000001020304983700080000002048
:103780002C000000F82F0008C43700082C0000208F
:103790004C09000008300008000000000000000094
:1037A0000000000000000000000000000000000019
:1037B00000000000010000001000000000000000F8
:0437C0000024F400ED
:04000005080000ED02
:00000001FF
