:020000040800F2
:100000006804002001010008751B00089510000815
:10001000731B00086D010008091C000800000000A7
:10002000000000000000000000000000791B000834
:100030006F01000800000000771B00087B1B000810
:100040001B0100081B0100081B0100081B01000820
:100050001B0100081B0100081B0100081B01000810
:100060001B0100081B0100081B0100081B01000800
:100070001B0100081B0100081B0100081B010008F0
:100080001B0100081B0100081B0100081B010008E0
:100090001B0100081B0100081B0100081B010008D0
:1000A0001B0100081B0100081B0100081B010008C0
:1000B0001B0100081B0100081B010008A510000817
:1000C000991000081B0100081B0100081B01000813
:1000D0001B0100081B0100081B0100081B01000890
:1000E0001B0100081B0100081B010008DFF80CD0F1
:1000F00000F02AF800480047491C00086804002066
:100100000648804706480047FEE7FEE7FEE7FEE7B1
:10011000FEE7FEE7FEE7FEE7FEE7FEE7C11B00089D
:10012000ED000008D2B201E000F8012B491EFBD21D
:1001300070470022F6E710B513460A4604461946F2
:10014000FFF7F0FF204610BD064C074D06E0E068C3
:1001500040F0010394E8070098471034AC42F6D30E
:10016000FFF7C8FFF41C0008141D0008FEE77047E5
:1001700010B590F821100024022903D004218163D6
:1001800001243DE001680A6822F00E020A6001685D
:100190000A6822F001020A601A4A0168914201D1FC
:1001A000012121E0174A1432914201D110211BE0B4
:1001B000144A2832914201D1891515E0114A3C3286
:1001C000914201D189140FE00E4A5032914202D17E
:1001D0004FF4803108E00B4A6432914202D14FF46F
:1001E000801101E04FF08071064A083A5160012108
:1001F00080F82110002180F82010416B01B1884760
:10020000204610BD0800024090F821007047000011
:1002100070B5044600F0FEF80546601C02D00448A4
:100220000078044400F0F6F8401BA042FAD370BDF9
:10023000000000202DE9F84FDFF8B891002409F103
:10024000040A0AF1040B23460F270BF1040EC9E040
:100250000125A5402A40AA427DD1674ED1F804C0AD
:10026000ACEB0608B44532D014DCBCF1030F3AD035
:1002700009DCBCF1000F2AD0BCF1010F1CD0BCF18D
:10028000020F31D11DE0BCF1110F17D0BCF1120FDC
:100290002AD119E0B8F5881F19D006DCB8F5803FDF
:1002A00015D0B8F5801F1FD111E0B8F5001F0ED092
:1002B000B8F5041F18D10AE0CB6815E0CB681B1D08
:1002C00012E0CB6808330FE0CB680C330CE08B688E
:1002D0002BB1012B4FF0080303D0456104E0042348
:1002E00002E0056100E00023FF2A01D8064601E094
:1002F00000F104064FEA840501D9A5F12005D6F8DE
:10030000008007FA05FC28EA0C0803FA05F548EA1C
:100310000508C6F800804D68ED0062D5374DAE691E
:1003200046F00106AE61AD6924F0030605F0010553
:100330000095334D06EB050CDCF80850A607360F88
:1003400007FA06F825EA0805DFF8B880404503D12A
:100350004FF0000817E044E0DFF8AC80404502D1E0
:100360004FF001080FE0DFF8A480404502D14FF0C4
:10037000020808E0DFF89880404502D14FF00308FA
:1003800001E04FF0040808FA06F848EA0508CCF83E
:1003900008804D68D9F80060ED034D4601D516433D
:1003A00000E096432E604D68DAF80060AD035546D4
:1003B00001D5164300E096432E604D68DBF80060DF
:1003C000ED025D4601D5164300E096432E604D6870
:1003D000DEF80060AD02754601D5164300E0964395
:1003E0002E60641C0D682A46E5407FF431AFBDE8FD
:1003F000F88F0000000401400000111000100240BE
:100400000000014000080140000C014000100140C4
:10041000001401400148806870470000000000207F
:10042000704770472DE9F04104460068416946680D
:100430000025CF43F9050BD4F143C90508D46FF467
:100440008071012541612068016841F4004101602B
:10045000B80508D4F043C00505D421686FF40070D6
:1004600045F002054861780527D4F043C00524D43F
:1004700094F83E30628D94F83D00216B202B08D11A
:100480003AB9212810D029280ED0282801D12129B5
:100490000AD021686FF48060486194F83E0045F00E
:1004A0000405102804D008E0204601F0A7F904E074
:1004B0002068016841F400710160380508D4F043F8
:1004C000C00505D421686FF4006045F00805486157
:1004D000002D07D0206C284320642046BDE8F04161
:1004E00000F026BEBDE8F0812DE9F041026800244D
:1004F0005168C56A90F83E3090F83D60102B1CD0D2
:10050000402B1AD0036C002B7ED053694FF0280586
:10051000DB439F0779D4CF43BF0576D4016C01B18B
:10052000946990F83D3000219D430B467FD0C91E51
:10053000516180F83C30BDE8F081946953694FF413
:100540002A07DB435FEAC37C4FF02A4604D0BD4252
:10055000F1D0B542EFD010E0CD43AD050DD4C16A66
:10056000B94201D1012103E0C16AB14201D10821A0
:10057000C162BDE8F04101F0F9B81D0716D4CD43C2
:10058000AD0513D4416CC9B21161416B11B9826BD5
:10059000002AD0D0896A19B9816B896A0029CAD02A
:1005A0000068416841F400614160C4E79D0706D4DA
:1005B000CD43AD0503D4BDE8F04101F02BB8E443D1
:1005C000526864074FEA025215D4002AB3DB1A06B8
:1005D00008D4CA43520505D45A0705D5BDE8F041F1
:1005E00000F096BF5A07A6D4C9438905A3D4BDE835
:1005F000F04100F04BBF002A9DDB5A060CD4CA43E1
:10060000520509D45A0702E00FE023E00FE005D5B8
:10061000BDE8F04100F0ACBE5A078CD4C94389054F
:1006200089D4BDE8F04100F03ABE94696DE75568A1
:1006300025F480655560E243540700D50121120678
:1006400001D5828900E0028B80F83C3092B2FFF73E
:10065000E8FE70E7DC0606D4CC43A40503D4BDE86D
:10066000F04101F00DB9212E27D0292E25D05C06AE
:1006700055D4CC43640552D45B0752D590F83D1055
:10068000438D002B91D01269436A1A70426A521C42
:100690004262428D521E4285428D002A85D12A290E
:1006A000D7D101684A6822F480624A60222101633E
:1006B00080F83D5000F0D4F93DE71C0623D4CC432C
:1006C000640520D45B0720D590F83D10438D002BA6
:1006D000BFD0436A1B781361426A521C4262428D4A
:1006E000521E4285428D002AB3D12929B1D1016819
:1006F0004A6822F480624A602121016380F83D50FB
:1007000000F0AFF917E75B07A3D4C9438905A0D46C
:10071000418D00299DD0416A097811610AE05B078B
:1007200097D4C943890594D4418D002991D011698A
:10073000426A1170416A491C4162418D491E4185DE
:10074000F9E6704770B504001BD094F83D00002511
:1007500020B984F83C50204600F044F9242084F865
:100760003D002068016821F00101016000F0A8FA55
:100770004A4A6168914201D8494900E049498842A2
:1007800001D2012070BD48492368B0FBF1F15E68D9
:1007900026F03F060E435E606368934206D94FF42D
:1007A000967359434FF47A73B1FBF3F12368491CF4
:1007B0001E6A26F03F0631431962616891420AD8E9
:1007C0004900401EB0FBF1F0401CC0F30B000428B0
:1007D0001ED204201CE0A368F3B301EBC10202EBBC
:1007E0000116421EB2FBF6F2521C42F48042120580
:1007F00049D093B301EBC10202EB0111401EB0FBE3
:10080000F1F0401CC0F30B0040F4804040F4004085
:100810002168CA694CF6FF739A431043C861D4E952
:10082000071001432068026822F0C00211430160F2
:10083000D4E90310084321688A6848F2FF339A43D9
:1008400010438860D4E9050108432168CA6822F092
:10085000FF021043C86001E00EE016E02068016866
:1008600041F0010101602564202084F83D002563EA
:1008700084F83E50002070BD01EB4106421EB2FBE1
:10088000F6F2521CB3E70120C2E701EB4101401E22
:10089000B0FBF1F0401CC0F30B00B7E7A0860100ED
:1008A00080841E0000093D0040420F0070477047E1
:1008B000704700002DE9F84F1F4690468A460446CF
:1008C000DDF82890FFF7A6FD054694F83D002028A6
:1008D0007FD11923012240492046009501F0A4F858
:1008E000002876D194F83C00012872D0012084F8C9
:1008F0003C0020680168C90703D1016841F001018B
:1009000001602068016821F400610160212084F801
:100910003D00102084F83E0000262664C4F82480A0
:100920006785608D20852D48E0622B464A465146FA
:10093000204600F067FD90B9206841698069009009
:1009400036E02A464946204601F0EDF850B1206CC9
:10095000042804D12068016841F40071016001207D
:10096000BDE8F88F606A216800780861606A401C01
:100970006062618D491E6185218D491E89B2218584
:1009800022685369DB435B070BD451B100781061D7
:10099000606A401C6062608D401E6085208D401E34
:1009A00020852A464946204601F018F80028CED175
:1009B000208D0028C5D154F83D0B016841F4007129
:1009C0000160202004F81E09E67766770020C7E75B
:1009D000FFE70220C4E70000020010000000FFFF54
:1009E0007047704710B586B00021009101910291C7
:1009F00003910068174988422AD1174CA06940F03A
:100A00000800A061A069694600F008000490C020B9
:100A1000009012200190032003901048FFF70AFC79
:100A2000E06940F40010E061E069002200F4001089
:100A3000049011461F2000F07BF81F2000F06AF898
:100A400000221146202000F073F8202000F062F808
:100A500006B010BD0054004000100240000C0140E0
:100A6000704770470248816802781144816070477E
:100A700000000020074810B5016841F01001016036
:100A8000032000F075F8002000F006F800F024F8CC
:100A9000002010BD0020024070B50D4D04464FF4FB
:100AA0007A712878B1FBF0F00A490968B1FBF0F0DF
:100AB00000F0DCFA48B9102C07D200222146501E63
:100AC00000F036F800206C6070BD012070BD0000A1
:100AD000000000200C0000200C4808B5816941F09E
:100AE00001018161816901F001010091C16941F059
:100AF0008051C161C06900F0805000900448416895
:100B000021F0E06141F00071416008BD0010024039
:100B100000000140002809DB00F01F020121914084
:100B20004009800000F1E020C0F80011704700008B
:100B3000F0B40E4B1B680C46C3F30223C3F1070548
:100B4000042D00D90425191D072901D2002300E036
:100B5000DB1E012606FA05F1491E214099409E4000
:100B6000761E16403143F0BC01F04FB80CED00E0AA
:100B7000064900F0070208684FF6FF03184040EAF4
:100B80000220034A10430860704700000CED00E0AB
:100B90000000FA052DE9F0470F46050061D0434EED
:100BA000306800F00700B84209D2306820F0070032
:100BB00038433060306800F00700B84251D12868EF
:100BC0003B4C810712D5400703D5606840F4E060D4
:100BD00060602878000703D5606840F4605060606A
:100BE0006068A96820F0F000084360602878C007BA
:100BF00028D06868012810D02168022810D0890701
:100C000000292EDA616821F0030101436160FFF7DA
:100C100001FC804641F288390DE021688903EFE745
:100C20008901EDE7FFF7F6FBA0EB0801494502D982
:100C30000320BDE8F0876068696800F00C00B0EB45
:100C4000810FEFD1306800F00700B8420BD930684F
:100C500020F0070038433060306800F00700B842E9
:100C600001D00120E5E72878400705D56068E968EC
:100C700020F4E060084360602878000706D56068CB
:100C8000296920F4605040EAC100606000F028F853
:100C90006168084AC1F30311515CC8400649086005
:100CA00006480068FFF7F8FE0020C2E70020024077
:100CB00000100240DC1C00080C0000200400002092
:100CC0000448054900684968044AC1F30221515C9F
:100CD000C84070470C00002000100240EC1C0008C7
:100CE00012A185B00FC98DE80F0014A0144A006846
:100CF00004905168134801F00C03042B10D0082B0A
:100D00000ED1C1F38343C9031DF803000AD551680E
:100D100004AAC1F34041515C0A4A5043B0FBF1F0D0
:100D200005B0704708494843FAE70000020304058C
:100D3000060708090A0B0C0D0E0F10100102000027
:100D40000010024000127A0000093D002DE9F84F22
:100D5000040070D02078C04DC00749D06868C0F347
:100D60008100012807D06868C0F38100022809D1FA
:100D70006868C00306D52868800339D560680028F4
:100D8000E7D035E06068B0F5803F0BD010B1B0F52A
:100D9000A02F11D0286820F480302860286820F423
:100DA000802002E0286840F480302860606890B1BC
:100DB000FFF730FB06460AE0286840F480202860F0
:100DC000F0E700BFFFF726FB801B642873D8286874
:100DD0008003F7D50CE0FFF71DFB064605E000BFDA
:100DE000FFF718FB801B6428F0D828688003F7D42D
:100DF00020789A4E80074FF001094FF0000839D54E
:100E0000686810F00C0F07D06868C0F381000228F2
:100E100009D16868C00306D42868800714D5206902
:100E2000012808D110E02069B0B1C6F80090FFF7A2
:100E3000F1FA074605E00AE1FFF7ECFAC01B0228C9
:100E4000C4D828688007F7D52868616920F0F800C1
:100E500040EAC10028600DE0C6F80080FFF7DAFA2A
:100E6000074604E0FFF7D6FAC01B022823D82868FB
:100E70008007F7D4207800072CD57948A169D9B12B
:100E8000C0F80090FFF7C6FA074604E0FFF7C2FA81
:100E9000C01B02280FD8686A8007F7D571484FF445
:100EA000FA510068B0FBF1F0009000BF0098411EBD
:100EB0000091FAD20EE080E0C0F80080FFF7AAFAB5
:100EC000074604E0FFF7A6FAC01B022875D8686A37
:100ED0008007F7D42078400760D5E8690027C00074
:100EE00008D4E86940F08050E861E869012700F023
:100EF000805000905C480168C90513D4016883469E
:100F000041F480710160FFF785FA824606E000BF78
:100F1000FFF780FAA0EB0A0064284ED8DBF8000047
:100F2000C005F5D5E06801280AD008B1052813D01E
:100F3000286A20F001002862286A20F0040002E0FC
:100F4000286A40F001002862E06841F2883B98B1CD
:100F5000FFF760FA82460BE0286A40F0040028623E
:100F6000EEE700BFFFF756FAA0EB0A0159455AD841
:100F7000286A8007F6D50CE0FFF74CFA824605E0B8
:100F8000FFF748FAA0EB0A0159454CD8286A8007B8
:100F9000F6D41FB1E86920F08050E861E06988B3B9
:100FA0006968C1F38101022944D00228C6F8608033
:100FB00004D0FFF72FFA044638E034E0FFF72AFAAE
:100FC000074604E0FFF726FAC01B02282BD8286842
:100FD0008001F7D4206AB0F5803F05D16868A16828
:100FE00020F4003008436860D4E9080108436968C8
:100FF00021F4741108436860C6F86090FFF70AFA9C
:10100000044606E025E000BFFFF704FA001B0228B3
:1010100009D828688001F7D51BE000BFFFF7FAF96F
:10102000001B022802D90320BDE8F88F2868800140
:10103000F4D40EE00128F7D06868226A00F4803109
:10104000914204D1616A00F47010884201D00120FD
:10105000EAE70020E8E700000010024000004242FA
:10106000800442420C0000200070004010B5401E79
:10107000B0F1807F01D3012010BD4FF0E02460610A
:101080000F21601700F0C1FD0020A0610720206142
:10109000002010BDFEE700000148FFF7C3B90000C3
:1010A000100000200148FFF71FBA000010000020C8
:1010B00010B5406A90F83D30426B00219162826B1E
:1010C00091620268146824F4806414604185426B64
:1010D0005163826B51630268146824F00104146048
:1010E00090F83D202024602A0BD0282232EA030306
:1010F0000FD080F83D4080F83E1000BFFFF721FB85
:1011000010BD80F83D4080F83E100164FFF788F97B
:1011100010BD03681C6844F001041C6003681C686F
:1011200044F480641C60016380F83D20E6E7000021
:1011300070B5044690F83D0094F83E10102906D191
:10114000222804D121680A6822F400620A6028215A
:1011500031EA00024FF000054FF0200626D021684A
:101160004968090503D4602801D084F83D602563EF
:1011700084F83E5020684168090537D5416821F45C
:1011800000614160606B384990F82120012A11D03C
:101190004163606BFEF7ECFF38B32068016821F013
:1011A0000101016084F83D60606B1CE0256384F8F8
:1011B0003D10DFE7A06B4163A06BFEF7D9FFA0B144
:1011C00020684169C943490605D40069616A08700D
:1011D000606A401C60622068016821F001010160C2
:1011E00084F83D60A06B416B884710E094F83D1097
:1011F000602923D04169C943490605D40069616A61
:101200000870606A401C60622046FFF79AFA94F802
:101210003D00216C490710D528280ED1206841686F
:1012200021F4E06141601148E062256384F83D608B
:1012300084F83E502046FFF739FB70BD84F83D60CE
:1012400025644169C943490605D40069616A08708B
:10125000606A401C60622068016821F00101016041
:101260002046FFF7DDF8D2E7B11000080000FFFFCD
:1012700001684A69D24352050FD46FF480624A6113
:10128000002140F8301F202242738173026942F02E
:10129000040202610173012070470020704710B5FD
:1012A000C26A438D0168042B06D0438D032B08D0FE
:1012B000438D022B1DD012E04A6822F480624A60FE
:1012C0000CE04B6823F480634B60042A06D0022AAA
:1012D00004D001680A6822F480620A600168096922
:1012E000426A1170416A491C4162418D491E418523
:1012F00010BD012A30D0102A2ED0042A30D0022A64
:101300002ED00A6842F400720A6001680969426AD4
:101310001170416A491C4162428D521E4285026829
:1013200012690A70416A491C4162418D491E41851A
:1013300001684A6822F440724A60202180F83D101A
:1013400090F83E200021402A80F83E100CD0122157
:101350000163FFF7ACFA10BD0A6822F48062D3E79C
:101360000A6842F48062CFE70163FFF739FB10BDE2
:1013700010B590F83D10222914D1418D032912D9BE
:1013800001680969426A1170416A491C4162418DD4
:10139000491E4185418D032904D10068416821F42B
:1013A0008061416010BDC26A022AFBD0012901D0D0
:1013B0000029F7D101680A6822F480620A60016896
:1013C0004A6822F4E0624A6001680969426A117061
:1013D000416A491C4162418D491E4185202180F8A6
:1013E0003D1090F83E200021402A80F83E1004D0A5
:1013F00012210163FFF75BFA10BD0163FFF7F0FAFA
:1014000010BD0000F8B50446C06A1E460D461746DA
:10141000082807D0012805D010F5803F02D0206BA6
:10142000122804D12068016841F4807101601346DC
:1014300000224FF001112046009600F0F5FA08BB9B
:101440002069B0F5804F0ED00620216800EAD51043
:1014500040F0F000086133463A460B49204600F060
:1014600017FB78B902E005F0FE0000E0E8B2216861
:101470000861054933463A46891F204600F008FBBB
:10148000002800D00120F8BD0800010010B5C26A94
:1014900090F83D1021290BD1418D51B1416A02686C
:1014A00009781161416A491C4162418D491E41859B
:1014B00010BD20230021082A13D0202A11D012F5B4
:1014C000803F0ED00268546824F4E0645460112216
:1014D000026380F83E1080F83D3000BFFFF7E8F966
:1014E00010BD0268546824F4E06454600268146813
:1014F00044F400741460016380F83D3090F83E209D
:1015000080F83E10402AE9D1FFF76BFA10BD0000C9
:1015100010B590F83D1090F83E30C26A048D64B169
:10152000212903D0402B21D122291FD1418DA1B3E4
:1015300090F83E10402937D046E02129F2D12023EF
:101540000021082A13D0202A11D012F5803F0ED096
:101550000268546824F4E06454601122026380F845
:101560003E1080F83D3000BFFFF7A2F910BD0268C1
:10157000546824F4E06454600268146844F400740D
:101580001460016380F83D3090F83E2080F83E10F2
:10159000402AE9D1FFF725FA10BDFFE7006841684E
:1015A00021F480614160F7E7016DC1B1016D01294E
:1015B00022D0016D0229EFD190F83D10222923D0CD
:1015C00090F83D102129E7D1416A0268097811613C
:1015D000416A491C4162418D491E4185DCE7C16C6D
:1015E0000129816C02D0C1F3072107E00268C9B26A
:1015F0001161016D891C05E0816CC9B2026811613D
:10160000016D491C0165C7E70068016841F48071FC
:101610000160C1E778B590F83E50C26A046B90F85B
:101620003D6000230168222E73D1066D0EB9402D56
:101630006FD0056D1DB90569B5F5404F1BD0458DBF
:1016400095B3468D484D012E20D0448D022C4DD0AF
:101650000C6844F480640C6001684C68240579D5FA
:10166000AA4273D0012A71D0082A6FD0102A6DD0F7
:10167000202A6BD06EE04A698A6900920A6842F4B7
:1016800080720A60016D491C016578BDAA4214D1BF
:101690000A6822F480620A6001684A68120504D56B
:1016A0000A6822F4806217E0FFE74A698A690092BB
:1016B0000A6842F400720A6050E0082A10D0202A1A
:1016C0000ED0122C0AD0042A03D0022A01D0102AEC
:1016D000E6D10A6842F480620A603BE0012ADFD06A
:1016E0000A6822F480620A600168DEE7042A11D0E9
:1016F000022A0FD0102A0DD00C6844F400640C604C
:1017000001684C698C6900940C6824F480640C6056
:1017100008E025E00C6844F480640C6001684C69C2
:101720008969009101684C68240517D5AA4207D041
:10173000012A05D0082A03D0102A01D0202A0DD171
:101740004A6842F480524A6008E0FFE74A6842F47F
:1017500080524A6001684A6989690091036578BDD1
:1017600048698869009078BD0000FFFF90F83E103E
:10177000402910D00169B1F5804F19D0016DB1B386
:10178000016D012910D1416C5FF0F10201F440714B
:1017900042EAD11106E0016D0029416C05D0C9B2C1
:1017A00041F0010100680161704701F0FE01F9E7B5
:1017B00090F83D102129416C07D0C9B241F00101D8
:1017C00002681161416B31B902E001F0FE01F7E7F7
:1017D000826B002AE8D0896A19B9816B896A00296D
:1017E000E2D00068416841F4006141607047FFE762
:1017F000416CF02201F44071CAE700002DE9F0418C
:1018000090F83D40C26A002320261C4F01686FF407
:101810008065082A01D0202A01D1282C04D0212C4F
:1018200016D04D61BDE8F081C7624A6822F4E062DB
:101830004A6001684D6101680A6822F480620A60AA
:10184000036380F83D6080F83E30FFF72FF8E9E74A
:10185000C7622122026380F83D6080F83E304A680A
:1018600022F4E0624A6001684D6101680A6822F46E
:1018700080620A60FFF7F5F8D4E700000000FFFF80
:10188000F8B590F83D6004460068416821F4E061D5
:1018900041602068002541690091016841F0010123
:1018A00001602068016821F480610160206841685E
:1018B000090520D5474F222E48D02A2E46D0616BED
:1018C000096849686185618D19B1216C41F0040195
:1018D0002164416821F400614160606BFEF794FC73
:1018E000012808D0606B4763606BFEF741FC10B1C4
:1018F000606B416B8847608D08B320684169C943BC
:10190000490708D40069616A0870606A401C606217
:10191000608D401E608520684169C943490608D42E
:101920000069616A0870606A401C6062608D401ED8
:101930006085608D18B1206C40F004002064206C3C
:1019400000B32046BDE8F840FFF7F2BBA16B096881
:1019500049686185618D19B1216C41F004012164F0
:10196000416821F400614160A06BFEF74DFC012845
:10197000C1D0A06B4763A06BFEF7FAFB0028BAD07A
:10198000A06BB6E72A2E06D12563282084F83D00F7
:101990002046FFF765F894F83D10202028290DD047
:1019A000216B222901D0222E07D1256384F83D0026
:1019B00084F83E502046FFF753F8F8BD0649E1622F
:1019C000256384F83D0084F83E502046FEF76EFF04
:1019D000F8BD0000B11000080000FFFF70B516460A
:1019E0000D4604460DE02046FFF742FC08B10120F9
:1019F00070BD681C05D0FEF70DFD801BA84207D8FE
:101A000035B120684069C0434007ECD4002070BD68
:101A1000002044F8300F20216173A073216941F048
:101A2000200121612073E2E72DE9F0471E46904630
:101A30000D460446C1F30747DDF8209008E0701C0E
:101A400006D0FEF7E7FCA0EB0900B0420FD876B154
:101A50002068012F18D0806925EA00000004000CDE
:101A600014D000214145EAD00020BDE8F0870020D5
:101A700044F8300F20216173A073216941F02001E7
:101A8000216120730120F0E74069E5E70121E9E7E2
:101A90002DE9F0479A4691460E46044600254FF040
:101AA0002008C1F3074725E020684069C04340058E
:101AB00014D42068016841F40071016021686FF45A
:101AC00080604861256384F83D8084F83E50206C36
:101AD00040F00400206484F83C501FE0B9F1FF3F5F
:101AE00008D0FEF797FCA0EB0A0149450CD8B9F1E4
:101AF000000F09D02068012F13D0806926EA00006A
:101B00000004000C0BD0CFE744F8305F84F80D8060
:101B1000A573206940F02000206125730120BDE8F5
:101B2000F0874069EAE770B516460D4604460DE0B9
:101B30002046FFF79DFB08B1012070BD681C05D051
:101B4000FEF768FC801BA84207D835B120684069C1
:101B5000C0430006ECD4002070BD002044F8300FD4
:101B600020216173A073216941F02001216120735C
:101B7000E2E7FEE7704770477047FEF773BF10B5A6
:101B800090B028216846FEF7D4FA14210AA8FEF77F
:101B9000D0FA02200090012004901020002405902B
:101BA00007946846FFF7D2F80F20CDE90A040C9499
:101BB0000D9400210AA80E94FEF7ECFF10B010BDA2
:101BC0000D48016841F00101016041680B4A114074
:101BD000416001680A4A11400160016821F48021D6
:101BE0000160416821F4FE0141604FF41F018160F2
:101BF0000449C00308607047001002400000FFF86D
:101C0000FFFFF6FE08ED00E0FEE70907090E0028D9
:101C100004DB00F1E02080F80014704700F00F00B2
:101C200000F1E02080F8141D704702E008C8121F80
:101C300008C1002AFAD170477047002001E001C1B5
:101C4000121F002AFBD1704786B0FEF713FFFFF783
:101C500096FF1A48816941F004018161816901F0B0
:101C600004010091816941F0080181618069144992
:101C700000F00800009013484FF4804201601249C0
:101C8000416000218160C0E9031241618161C1614D
:101C90000162FEF757FD4FF47A740CA10DF1040CAC
:101CA0000FC900948CE80F00102301AA19460548BB
:101CB000FEF700FE2046FEF7ABFAEEE7001002400A
:101CC0000054004010000020A08601004D736720E2
:101CD00066726F6D2073746D33320A00000000006D
:101CE00000000000010203040607080900000000CC
:101CF00001020304141D0008000000201000000071
:101D00002A1C0008241D00081000002058040000B0
:101D10003A1C000801000000100000000000000054
:041D20000024F400A7
:04000005080000ED02
:00000001FF
